:020000040800F2
:1000000088060020D1010008790200087B02000860
:100010007F02000883020008870200080000000039
:100020000000000000000000000000008B0200083B
:100030008D020008000000008F02000891020008F5
:10004000EB010008EB010008EB010008EB010008E0
:10005000EB010008EB010008EB010008EB010008D0
:10006000EB010008EB010008EB010008EB010008C0
:10007000EB010008EB010008EB010008EB010008B0
:10008000EB010008EB010008EB010008EB010008A0
:10009000EB010008EB010008EB010008EB01000890
:1000A000EB010008EB010008EB010008EB01000880
:1000B000EB010008EB010008EB010008EB01000870
:1000C000EB010008EB010008EB010008EB01000860
:1000D000EB010008EB010008EB010008EB01000850
:1000E000EB010008EB010008EB010008EB01000840
:1000F000EB010008EB010008EB010008EB01000830
:10010000EB010008EB010008EB010008EB0100081F
:10011000EB010008EB010008EB010008EB0100080F
:10012000EB010008EB010008EB010008EB010008FF
:1001300000F002F800F03CF80AA090E8000C8244BD
:100140008344AAF10107DA4501D100F031F8AFF29A
:10015000090EBAE80F0013F0010F18BFFB1A43F0A5
:1001600001031847BC0A0000DC0A0000103A24BF53
:1001700078C878C1FAD8520724BF30C830C144BF0C
:1001800004680C607047000000230024002500264E
:10019000103A28BF78C1FBD8520728BF30C148BFEA
:1001A0000B6070471FB500F034FD1FBD10B510BDCA
:1001B00000F0F5FC1146FFF7F5FF00F02EF800F017
:1001C00013FD03B4FFF7F2FF03BC00F01BFD0000BA
:1001D0000948804709480047FEE7FEE7FEE7FEE7DB
:1001E000FEE7FEE7FEE7FEE7FEE7FEE70448054917
:1001F000054A064B704700009D03000831010008C6
:100200008800002088060020880200208802002044
:1002100000E0401E0028FCD17047002400F03AF8AE
:1002200020E0601CC4B201210F4800F044FA0F48DE
:10023000FFF7EEFF0E48006808B9012000E000203B
:100240000C4908604FF00101074800F032FA022122
:10025000054800F030FA0548FFF7DAFF02210248AE
:1002600000F027FADDE70000000C0140EFFF3F003F
:1002700020012142A0012142704700BFFEE700BFDC
:10028000FEE700BFFEE700BFFEE77047704770471C
:100290007047000008B501210C2000F012FC40F26C
:1002A0000310ADF8000010208DF8030003208DF836
:1002B00002006946054800F051F96946044800F01B
:1002C0004DF90321014800F0F4F908BD000C01408C
:1002D0000008014000210020674A126842F4803281
:1002E000654B1A6000BF644A126802F40030491C72
:1002F00010B9B1F5A06FF6D15F4A126812F4003F51
:1003000001D0012000E00020012842D15B4A1268A0
:1003100042F01002594B1A601A46126822F003028A
:100320001A601A46126842F002021A60524A526873
:10033000514B5A601A4652685A601A46526842F443
:1003400080625A601A46526822F47C125A601A4639
:10035000526842F4E8125A601A46126842F08072FB
:100360001A6000BF444A126812F0007FFAD0424A75
:10037000526822F00302404B5A601A46526842F01B
:1003800002025A6000BF3C4A526802F00C02082A7E
:10039000F9D1704710B5FFF79DFF10BD10B5364875
:1003A000006840F00100344908600846406834495C
:1003B00008403149486008460068324908402E49E3
:1003C00008600846006820F48020086008464068FD
:1003D00020F4FE0048604FF41F008860FFF7DAFF4A
:1003E0004FF000602849086010BD10B500210020C2
:1003F0000022214B5B6803F00C0121B1042906D0D7
:10040000082928D107E0214B214C236027E01F4B0E
:100410001F4C236023E0184B5B6803F47010164BED
:100420005B6803F48032022303EB904022B9194B3E
:100430004343174C23600DE00F4B5B6813F4003F00
:1004400004D0144B4343124C236003E00F4B43434F
:100450000F4C236003E00D4B0D4C236000BF00BF29
:10046000054B5B68C3F303130B4CE15C084B1B6843
:10047000CB40074C236010BD00100240002002401A
:100480000000FFF8FFFFF6FE08ED00E000127A0022
:100490000000002000093D000400002010B50446C3
:1004A000CA48844208D10121042000F024FB002125
:1004B000042000F020FB46E0C548844208D1012119
:1004C000082000F018FB0021082000F014FB3AE09F
:1004D000C048844208D10121102000F00CFB00210B
:1004E000102000F008FB2EE0BB48844208D1012117
:1004F000202000F000FB0021202000F0FCFA22E088
:10050000B648844208D10121402000F0F4FA0021CD
:10051000402000F0F0FA16E0B148844208D10121F1
:10052000802000F0E8FA0021802000F0E4FA0AE0E0
:10053000AC48844207D10121801500F0DCFA00218B
:10054000A01500F0D8FA10BD10B50121084600F042
:10055000D2FA0021012000F0CEFA10BD2DE9F041C1
:10056000024600250026002000230024002791F8E1
:1005700003C00CF00F0591F803C01CF0100F03D05E
:1005800091F802C04CEA0505B1F800C01CF0FF0F5D
:1005900031D0146800202BE04FF0010C0CFA00F36E
:1005A000B1F800C00CEA03069E4220D183004FF050
:1005B0000F0C0CFA03F7BC4305FA03FC4CEA0404E5
:1005C00091F803C0BCF1280F06D14FF0010C0CFAD2
:1005D00000FCC2F814C00AE091F803C0BCF1480F57
:1005E00005D14FF0010C0CFA00FCC2F810C0401C01
:1005F0000828D1D31460B1F800C0BCF1FF0F34DD7E
:10060000546800202EE000F1080C4FF0010808FAB1
:100610000CF3B1F800C00CEA03069E4221D183001E
:100620004FF00F0C0CFA03F7BC4305FA03FC4CEA3D
:10063000040491F803C0BCF1280F05D100F1080CA7
:1006400008FA0CF8C2F8148091F803C0BCF1480F06
:1006500007D100F1080C4FF0010808FA0CF8C2F8B5
:100660001080401C0828CED35460BDE8F0814FF6BE
:10067000FF710180022181700421C1707047024620
:10068000002093680B4201D0012000E00020704759
:100690000146886880B2704702460020D3680B424A
:1006A00001D0012000E0002070470146C86880B2F8
:1006B000704701617047416170470AB1016100E014
:1006C00041617047C16070474FF480320A438261D4
:1006D0008161826182698269704702460020424BD3
:1006E00018684FF68073184040EA021008433E4BEA
:1006F000186070473D49C8617047F0B50A4600234D
:1007000000240021002500F00046B6F1004F02D180
:10071000354EF16901E0344E7168C0F3034583B290
:1007200000F44016B6F5401F08D121F070612E4E3E
:10073000766826F070662C4F7E6012E000F480161A
:10074000B6F5801F06D1032606FA05F4A14341F051
:10075000706106E0460D360103FA06F6B14341F03A
:10076000706122B1460D360103FA06F6314300F0FE
:100770000046B6F1004F02D11B4EF16101E01A4E66
:100780007160F0BD30B500228B071C0F0F2303FAF8
:1007900004F2154B08338C1053F824309343124C59
:1007A00008348D1044F8253023468C1053F824303B
:1007B0008C07240F00FA04F423430B4C08348D10EB
:1007C00044F8253030BD0A490860704700080140F0
:1007D000000C0140001001400014014000180140CD
:1007E000001C0140002001400000014000002042A8
:1007F000DC002042DB48006840F00100D949086075
:1008000008464068D8490840D6494860084600680C
:10081000D6490840D34908600846006820F4802083
:1008200008600846406820F4FE0048604FF41F004E
:1008300088607047CB49096821F48031C94A11604A
:100840001146096821F480211160B0F5803F03D082
:10085000B0F5802F0ED106E0C249096841F480311D
:10086000C04A116007E0BF49096841F4A021BD4AB0
:10087000116000E000BF00BF704710B501460022C4
:10088000002300204A11012A02D1B64C236806E059
:10089000022A02D1B34C236A01E0B24C636A01F030
:1008A0001F02012494401C4201D0012000E00020DE
:1008B00010BD70B500240025002600BF3120FFF7D1
:1008C000DCFF0646641CB4F5A06F01D0002EF5D005
:1008D0003120FFF7D2FF08B1012500E000252846AE
:1008E00070BD014600209F4A106820F0F80040EAE1
:1008F000C100106070479E490860704702460020A2
:10090000984B586820F47C1042EA01031843954B39
:100910005860704796490866704701460020914A22
:10092000506820F003000843506070478D484068CD
:1009300000F00C007047014600208A4A506820F001
:10094000F00008435060704701460020854A506817
:1009500020F4E06008435060704701460020814A5F
:10096000506820F4605040EAC1005060704729B1DF
:100970007C4A527A02437B4B5A7206E0794A527A99
:10098000C343DBB21A40774B5A727047794908600B
:10099000704701460020734A506820F440400843E5
:1009A000506070470021744A11706E4A82F820101E
:1009B000012802D0042808D103E001216E4A1170F9
:1009C00004E005216C4A117000E000BF00BF7047D1
:1009D0006A49086070476349096A0143614A1162C4
:1009E000704767490860704730B500210022002435
:1009F00000235C4D6D6805F00C0121B1042905D080
:100A0000082923D105E05F4D056022E05D4D0560BA
:100A10001FE0544D6D6805F47012524D6D6805F479
:100A20008034022505EB92421CB9574D55430560B1
:100A30000BE04C4D6D6815F4003F03D0524D55430B
:100A4000056002E04F4D5543056002E04D4D0560E5
:100A500000BF00BF434D6D6805F0F00109094B4D23
:100A60006B5C0568DD4045603E4D6D6805F4E061F6
:100A7000090A464D6B5C4568DD408560394D6D68FF
:100A800005F46051C90A414D6B5C4568DD40C560A5
:100A9000344D6D6805F44041890B3D4D6B5CC56874
:100AA000B5FBF3F5056130BD29B12E4A5269024309
:100AB0002C4B5A6104E02B4A52698243294B5A61FC
:100AC000704729B1274A92690243264B9A6104E094
:100AD000244A92698243234B9A61704729B1214A83
:100AE000D26902431F4BDA6104E01E4AD269824395
:100AF0001C4BDA61704729B11A4AD2680243194B7C
:100B0000DA6004E0174AD2688243164BDA60704715
:100B100029B1144A12690243124B1A6104E0114AC6
:100B2000126982430F4B1A6170471A490860704777
:100B30000F49C86470470B49C87170470948406A3B
:100B400040F0807007494862704701460020054A1E
:100B500092680A4201D0012000E00020704701495C
:100B600088727047001002400000FFF8FFFFF6FE99
:100B700000004242D800424220100240800442421B
:100B80003C04424200127A0000093D00140000209B
:100B90002400002040044242704770477047754669
:100BA00000F028F8AE4605006946534620F00700DD
:100BB000854618B020B5FFF719FBBDE820404FF07F
:100BC00000064FF000074FF000084FF0000B21F037
:100BD0000701AC46ACE8C009ACE8C009ACE8C00904
:100BE000ACE8C0098D4670470446AFF3008020464C
:100BF000FFF7E7FA004870472800002000487047D8
:100C00002C00002001491820ABBEFEE726000200A0
:100C1000704710B5FFF7F2FF4FF00001016010BD03
:100C2000400C000800000020280000006C010008B3
:100C3000680C0008280000206006000088010008F9
:100C400000A24A04000000000000000001020304AA
:100C50000607080900000000010203040102030462
:080C600006070809020406085A
:0400000508000131BD
:00000001FF
